:020000041000EA
:10000000002000081B0100100D0000007D01001001
:1000100000000000000000000000000000000000E0
:100020000000000000000000000000007901001046
:1000300000000000000000007901001079010010AC
:100040007901001079010010790100107901001088
:100050007901001079010010790100107901001078
:100060007901001079010010790100107901001068
:100070007901001079010010790100107901001058
:100080000448054B10B5834203D0044B002B00D02D
:10009000984710BD780300087803000800000000AE
:1000A00006480749091A8B10C90FC91810B549101D
:1000B00003D0044B002B00D0984710BD78030008F4
:1000C000780300080000000010B5074C2378002BCF
:1000D00009D1FFF7D5FF054B002B02D0044800E003
:1000E00000BF0123237010BDB00300080000000012
:1000F00094150010054B10B5002B03D0044905489A
:1001000000E000BFFFF7CCFF10BDC04600000000BC
:10011000B4030008941500107047FFF7FDFF72B696
:100120000F4C104DAC4209DA21686268A368043BA9
:1001300002DBC858D050FAE70C34F3E70A490B4AFF
:100140000020521A02DD043A8850FCDC08480949B4
:100150000860BFF34F8F00F06FF800F01DF8FEE766
:10016000A0150010B8150010B0030008C80500085D
:100170000000000808ED00E0FEE7FEE700B50420FF
:100180007146084202D0EFF3098002E0EFF30880E5
:10019000043000F0BBFDFEE710B562B6034800F086
:1001A000C3F8002000F0BAFEFBE7C04600200010B4
:1001B00010B5002000F090FA10BD704770B5002017
:1001C00000F0EEFC041E28D0144B186000F064FB15
:1001D000411C200000F080FF114B0400186000F06B
:1001E0004DFB411C200000F077FF04000D4B013C4B
:1001F00018600D49200000F06FFFFA210B4D01300F
:1002000028708900200000F067FF094D0130286048
:10021000002000F0C5FC074B186070BD8800000886
:100220008C0000088000000840420F009400000885
:10023000900000088400000810B5204800F0ACF8D9
:10024000B022E02130201E4CD200A35889005B0070
:100250005B08A35063588343635080235B04A3501F
:10026000184B194AE250A02204339201E250FF22B7
:10027000164BE25000F014FFC02201215200A35897
:100280008B43A350FFF799FFFFF798FF104B032014
:100290001A681300BA33198807234B43126A802166
:1002A0009B180022DA605A600A4A00F05FFA0A4896
:1002B00000F022F9094800F05BF910BDD4140010D9
:1002C0000000264084050000010002008C050000AB
:1002D0004C05000878030008CC030008A0140010A7
:1002E0009023034A5B01D058032318407047C0464F
:1002F0000000204010B5902400F047F8074B64013F
:100300001959074A1140074A0A431A5110225968DD
:100310001142FCD000F03DF810BDC0460000204066
:10032000FCFF00000100FA05F8B590260E4C76019E
:10033000070000F02AF8A3590500DB439B0701D111
:10034000FFF7D8FF80239B00E750A259074B1A40C4
:10035000074B1343A351102362681A42FCD02800B4
:1003600000F017F8F8BDC04600002040FCFF000078
:100370000300FA05000000000230800803D00130BD
:100380000238FCD1C046C0467047EFF3108072B609
:10039000704780F310887047014B18607047C04663
:1003A0004C050008044B1B681A00BA3212881B6AFD
:1003B0005043C0187047C0464C050008A02300B544
:1003C0001B06984226D015D8802825D00AD8102898
:1003D00024D0402824D000280BD0154809E0A420C0
:1003E000C00306E08022134B520090421CD098427A
:1003F000F3D100BD104B984218D0104BC018042800
:10040000EBD800F05FFEECEA0F0305000C48F0E7C4
:100410000C48EEE70020ECE70B48EAE70B48E8E77A
:100420000B48E6E70B48E4E71800E2E7A020D7E72F
:10043000FF00520006005200090000A0FFFFFF0F5E
:10044000020052000300520005005200010050005B
:10045000020050000100520010B50020FFF7A2FF7B
:100460000A4B1C682300BC331B68C0180368002BB0
:100470000ADB074B1868FFF7A1FF012263689A6047
:100480009A68002AFCD110BD0248FCE74C05000820
:100490005005000802005000064B1B68BC331B6867
:1004A000C3181B68002B03DA89B241600020704733
:1004B0000148FCE74C05000801008A000368002B96
:1004C00004DA89B2C2608160002070470048FCE70E
:1004D00001008A00064B1B68BC331B68C3181B68ED
:1004E000002B03DAC36800200B6070470148FCE76B
:1004F0004C05000801008A00024B1A68002A00D14E
:100500001860704764050008F0B52C24154E44436C
:1005100030681F000019FF241E0A26402740124C95
:100520001B0C256807602C6A46608360BA352D88ED
:100530006F433F190761370080377F01E7190B4D83
:1005400076014761A4191F043B436419236000230B
:100550008361059BC2610162002B01D01B888381EE
:10056000F0BDC046640500084C05000808100000F6
:10057000F0B50400236987B0026841680393A3685B
:1005800004AD1732C0682B806A80039BA26A059174
:100590000095E16A266A676AFFF7B6FF00213B0013
:1005A0000A0030000091FFF7AFFF2800216B00F038
:1005B00077FB0022AB5E002B06DB1F2213401E3AA6
:1005C0009A401300014A136007B0F0BD00E100E05B
:1005D000F0B585B003931B4B16001C682C235843C1
:1005E0004B4320180769E418002F27D0A569002D78
:1005F00026D13B68002B23DA134B1B6834331B785E
:100600000193436801996068029300F0EBFD0122B9
:100610008A40336812049BB2134333600123FE60A7
:10062000A361039B01996362029800F0DBFD012343
:100630008B409BB2BB60280005B0F0BD034DFAE7CC
:10064000034DF8E7640500084C05000804028A0021
:1006500007028A0073B5002642690400D568019636
:100660002B0CB34221D01B0413601368194B006993
:100670001B68BC331B68C3181B68B34215DA01A999
:10068000FFF728FFB0420CD10198E26903681E0C05
:10069000DBB29A4205D9226A9B009B58002B00D0FE
:1006A000984731002069FFF7F7FEADB2002D09D061
:1006B00063691D6000251B68636AAB4205D09847DB
:1006C0006562A56163691B6873BDA36A002BF8D0DE
:1006D0009847F6E74C0500082C2310B54343034A1E
:1006E0001068C018FFF7B6FF10BDC04664050008CB
:1006F0001A4B70B51A680C00130033331B78834211
:100700002AD9002928D00D681F212B000B400D424B
:1007100022D11100BA310988126A48431900104DDC
:100720008018286022685209934210D30021FFF7F5
:10073000B3FE002122002868FFF7C0FE011E04D18D
:100740002868FFF7A9FE002800D0064870BD62683F
:100750009E00B1500133E5E70348F7E74C05000878
:100760006805000801018A0003018A000B0010B52A
:10077000002A0DD1002914D10B4A0C4C11680A0033
:10078000BA321288096A424352182260180010BD1A
:10079000002906D006490B604A60FFF7A9FF030055
:1007A000F4E7044BF2E7C0464C0500086805000872
:1007B0008803000803018A00F7B51B4F04003B685B
:1007C0000E00002B2BD0DB681A68824229D9002545
:1007D0005B680193A94202D1FFF7D7FD0500386895
:1007E0000368002B19DA1F23012223409A40640971
:1007F000019BA4001C1921680A420CD0914321607E
:1008000000240021FFF748FE002E02D12800FFF748
:10081000C0FD2000FEBD054CF3E7054CF4E7034C9A
:10082000F7E7044CF5E7C0466805000802018800B8
:100830000301880004018A000C4B1B68002B11D0B7
:10084000DB681A6882420FD959681F234209184091
:100850001E3B8340920050581840431E9841044B61
:10086000C01870470348FCE70348FAE7680500082A
:10087000000188000201880004018A00054B1B6802
:100880001A0088321B6812689B181868000AC0B2E8
:100890007047C0464C050008044B1B681A0088329C
:1008A0001B6812689B181868000E70474C050008FA
:1008B000034BE0308000C0588006800F7047C04670
:1008C00000002640024B18694007C00F7047C04621
:1008D00000002740A6220549D2008B580220DB43A6
:1008E0009B0702D00123885818407047000026401B
:1008F00010B5FFF7EFFF0023022801D1014B1B6861
:10090000180010BD70050008084A83009B18D0220B
:100910009200985807221040042806D1C022920065
:100920009B581F22FC30134018437047000026409C
:1009300010B5FFF7E9FF88235B0098421CD00BD865
:10094000012813D0022814D0431E9841104B404276
:100950001840104BC01810BD1223FF33984210D01E
:100960001423FF33984210D00020F4E70A4B186894
:10097000F1E7FFF7BDFFEEE7084A094BD058C00F7B
:1009800001E0FFF79FFFC003E5E7044A054BF5E7E9
:1009900000EE85FF00127A006C050008000026407A
:1009A0000C0500003C050000B023154ADB00D358BD
:1009B00010B59903DB01DB0F890BC371114B01608B
:1009C000D3580F24D904DB01DB0D0381B123DB00F5
:1009D000D358C90C81801900214081721909214026
:1009E000C172D9029B009B0F8373074BC90CD3586C
:1009F00081815A05DB01520FDB0D8271038210BD2C
:100A000000002640840500008C0500008030034B68
:100A1000FF308000C058C00F7047C046000026401D
:100A20000F4B421E1B683F331B78934216D9803010
:100A30007F220C4BFF308000C3581F201A400A70E1
:100A40001A0A02404A701A0C02408A701A01C24007
:100A500000209B009B0FCA700B7170470248FCE797
:100A60004C0500080000264001004A00F0B589B09E
:100A700003AD2800FFF798FFB0230026164ADB00DD
:100A8000D358B34224DAAB7B022B21D0AC88B442DA
:100A90001ED03000ED79039FFFF74AFF220033009C
:100AA00031000190681C00F0C3FB0C00050033000E
:100AB0003A003100019800F0BBFBE6076A083243B8
:100AC0006308801859412A00230000F091FB0600BA
:100AD000300009B0F0BDC04600002640F7B5234BFA
:100AE00006001B683F331B78002B08D000283BD042
:100AF000834204D36946FFF793FF041E01D000260A
:100B000032E03000FFF782FF2300002805D06B465B
:100B10001C79023C23005A1E93416A461778547888
:100B20009578002BEBD0002CE9D0002DE7D03000D9
:100B3000FFF7FEFE002306002A002000190000F047
:100B400077FB00230C0005003A003000190000F08C
:100B50006FFBE6076A0832436308801859412A0090
:100B6000230000F045FB06003000FEBD4C050008E8
:100B700010B5041E04D1FFF779FF002806D008E065
:100B8000064B1B683F331B78834203D22000FFF7DC
:100B9000CFFE10BDFFF7A2FFEFE7C0464C050008EF
:100BA00070B50500FFF784FEE035074BAD0004008B
:100BB000E8580F231840FFF7DBFF0123A3405B0831
:100BC0001818E04070BDC0460000264030B5FF2533
:100BD00003242A000440E400A24089012940D243B2
:100BE000A14083B200280ADBC0240B4B80088000A0
:100BF000C018A400035913400B43035130BD0F200C
:100C00000340083B05489B089B001B18D86902401D
:100C10000A43DA61F2E7C04600E100E000ED00E0DF
:100C2000144B30B51B6807241A002C3212781F2A87
:100C300015D882081500A5432C1E0FD1033420407F
:100C4000A04081401B68920020339B180A00FF21BE
:100C500081401C68624011406140196030BD1A68D3
:100C6000802320401B06034380208001091889004F
:100C70008B50F3E74C050008064B10B59A68064CFC
:100C800010308300A24202D19858995010BD034AF7
:100C9000D058FBE700ED00E0000000080000001065
:100CA000F7B504000E00002801D1144C17E0002312
:100CB000C55E134B4188134F0193002D11DB2800B3
:100CC000FFF7AEFF61682800FFF780FFBB68019A5D
:100CD0000024934203D131002800FFF7CDFF20000C
:100CE000FEBD08B26168FFF771FFBB68019A9342CD
:100CF000DBD131002800FFF7BFFFD6E70100560027
:100D00000000000800ED00E0FEE7000002680A4B6A
:100D100010B51A6042685A6082689A60C268DA60E8
:100D200002691A6142695A6182699A61C269DA612B
:100D3000FFF7EAFF10BDC04690030008B0235B0533
:100D40005A782120002A01D05878C0B27047B023C9
:100D50005B059A89002A02D0988980B2704780206A
:100D60004000FBE7254B73B586000D00F4580429BD
:100D700001D0012925D100200EE0A3682B420AD121
:100D8000E36829001A685B6868460193009223684B
:100D900098471B4B1C606469002C0AD0194B984281
:100DA000EBD1012DE9D1164A174B126815489A511B
:100DB00076BD012DFCD1134B9842F4D0124B9C51BF
:100DC000F6E7022914D026006469002CFBD100202C
:100DD000002EEDD0B3682B4208D1F36829001A68C1
:100DE0005B68684601930092336898473669EFE77D
:100DF000034B1B68181EDBD01E69E8E7B40500082A
:100E0000B0050008FF0042009C0500081A4B1B6853
:100E1000190088311A6809685118096801621900B7
:100E20008C3109685218126842621A0046321278F0
:100E3000002A1FD09A68E0321268D2061AD5F22230
:100E4000DB68D2019A580260F022D2019A584260BF
:100E50000A4A9A5882600A4A9A58C260094A9A58BD
:100E60000261094A9A584261084A9A588261084ABE
:100E70009B58C3617047C0464C05000804780000C9
:100E8000087800000C78000010780000147800004A
:100E9000187800001A4B1B681900883109681A6815
:100EA0005218016A116019008C3109681A685218C9
:100EB000416A11601A0046321278002A1ED09A68E0
:100EC000E0321268D20619D5F0224168DB68D201FF
:100ED000995081680B4A9950C1680B4A9950016931
:100EE0000A4A995041690A4A99508169094A9950B8
:100EF000C169094A99500168E83299507047C04663
:100F00004C05000804780000087800000C78000008
:100F1000107800001478000018780000F7B505007C
:100F2000FFF70CFF564F01907B68002B00D06FE05D
:100F3000FFF72BFA7B680090002B00D07CE0514B30
:100F400007271C682300BA331B885F43236AFB18FA
:100F50001A68002AFCDADB68DA001ED51B0F4A4843
:100F60001E07FFF753FF22008832126823684749A3
:100F70009B181A6801980A40212862D1902000012C
:100F800002431A6022008C32126823689B181A6888
:100F90000A40104318603C4B3343802292051343B0
:100FA000226A0024BF18FB607C607B68FFF7CFFEDD
:100FB0008023344F5B00984246D1280000F068FA45
:100FC0003F6807223B00BA331E883B6A5643F3183A
:100FD0001A68002AFCDADD68EB0003D52801000955
:100FE000FFF758FF00222A4B00981D403B6AF31878
:100FF000DD605A60FFF7CDF9002C10D1204B5B6803
:10100000002B03D008210120FFF7ACFE2000FEBD1D
:1010100001210800FFF7A6FE041E00D188E7184B47
:101020005B68002B03D002210120FFF79BFE194BC8
:101030009C42EBD0184CE9E704210120FFF792FE17
:101040007DE7802040009BE73B681A00BC32196AAC
:10105000126852181168002910DBBA331B889B18DC
:101060001B68002B0ADB04230C4A11690B43136134
:10107000012D01D030BFA3E720BFA1E7054C9FE7BA
:10108000B40500084C05000874050008FF00FFFFC8
:10109000FFFFFFDF05004200FF00420000ED00E01F
:1010A000C0228020064952008B58C0059B009B0837
:1010B00003438B50802388581B0603438B50704793
:1010C0000000264002B4714649084900095649000B
:1010D0008E4402BC7047C046002243088B4274D342
:1010E00003098B425FD3030A8B4244D3030B8B4229
:1010F00028D3030C8B420DD3FF22090212BA030C32
:101100008B4202D31212090265D0030B8B4219D312
:1011100000E0090AC30B8B4201D3CB03C01A524132
:10112000830B8B4201D38B03C01A5241430B8B427A
:1011300001D34B03C01A5241030B8B4201D30B0363
:10114000C01A5241C30A8B4201D3CB02C01A52418A
:10115000830A8B4201D38B02C01A5241430A8B424D
:1011600001D34B02C01A5241030A8B4201D30B0236
:10117000C01A5241CDD2C3098B4201D3CB01C01A50
:10118000524183098B4201D38B01C01A524143095A
:101190008B4201D34B01C01A524103098B4201D348
:1011A0000B01C01A5241C3088B4201D3CB00C01AB5
:1011B000524183088B4201D38B00C01A524143082D
:1011C0008B4201D34B00C01A5241411A00D2014652
:1011D000524110467047FFE701B5002000F006F8C5
:1011E00002BDC0460029F7D076E770477047C04679
:1011F000002B11D1002A0FD1002900D1002802D0E4
:101200000021C943080007B4024802A14018029017
:1012100003BDC046D9FFFFFF03B4684601B502987D
:1012200000F034F8019B9E4602B00CBC7047C046EB
:10123000F0B5CE469946030C9C46130447461B0C5A
:101240001D000E0061460404240C80B50700100C3C
:101250004B436543414360432C0CC01820188C4617
:10126000834203D980235B029846C44449467943AC
:101270005643030C2D042D0C8919634400044019B6
:10128000C918C0BCB946B046F0BDC046F0B5574617
:101290004E464546DE46E0B504000D0092469946AE
:1012A00083B08B4230D82DD04946504600F0D8F854
:1012B00029000600200000F0D3F8331A9846203B9E
:1012C00034D49B4653465A46934042461F005346E9
:1012D00093401E00AF423BD8AF4200D179E05B465D
:1012E000A41BBD41002B00DA76E00022002300920F
:1012F000019301235A4693400193012342469340B0
:10130000009329E08242CFD900220023009201936A
:101310000C9B002B01D01C605D600098019903B00C
:10132000F0BCBB46B246A946A046F0BD42469B462D
:1013300020239B1A5246DA40414613004A468A400F
:10134000170042461F43534693401E00AF42C3D985
:1013500000220023009201934346002BD8D0FB07C4
:1013600072081A4346467B080EE0AB4201D1A24206
:101370000CD8A41A9D41012024196D410021013E81
:1013800024184D41002E06D0AB42EED9013E24195F
:101390006D41002EF8D1009801995B460019694112
:1013A000002B24DB2B005A464446D3402A00E2405F
:1013B0001C005B461500002B2ADB26009E403300F4
:1013C00026004746BE403200801A994100900191A4
:1013D0009EE7A342BCD882E74246202300219B1A05
:1013E0000022009101920122DA40019285E74246F3
:1013F00020239B1A2A0046469A402300F340444685
:1014000013432A00E2401C005B461500002BD4DA8F
:1014100042462F002023260097409B1ADE403B00C7
:101420003343CDE71C2101231B04984201D3000C58
:1014300010391B0A984201D3000A08391B09984247
:1014400001D30009043902A2105C40187047C0465D
:10145000040302020101010100000000000000007D
:1014600010B5002903D1FFF7DDFF203002E00800AE
:10147000FFF7D8FF10BDC046F8B5C046F8BC08BCA1
:101480009E467047F8B5C046F8BC08BC9E467047FB
:1014900001B40248844601BC604700BF65020008F1
:1014A0000300000001000000010000000000000037
:1014B00005036000040000000100000000000000BF
:1014C0000100000006046000080000002C05000870
:1014D000B101001000002040000024400000004046
:1014E00000000000000023400000304000003140B8
:1014F00000009F40000022400000104000009D407E
:101500002020202020101010101D1D8017007500B5
:10151000FF03060206003604102000007FC0000012
:1015200000040000000000000019324B647D000040
:10153000000000804000080B100000000000FF01C8
:101540002002001F00800004FF0810180010001483
:101550000018001C4044484C5000000008100000D7
:101560000800000004000000041000000012000049
:10157000042100000021000000160000401140027C
:10158000C41300138013A01340138813A813200062
:101590001C00000000000000F4FCFF7F01000000C0
:1015A000000000100000000880000000C0150010BE
:1015B00080000008F8020000B003000818020000D4
:1015C00000093D0000093D0000127A0000093D00BD
:1015D000A00F000004000000F5000010C90000107A
:1015E00080B230B5C400002820D0114B1868030029
:1015F000BA331A8807235343026A9A1811680029DC
:10160000FCDA3E210B4A062511600B4A0B4911609A
:10161000A3210B4AC90055500A495450006A545836
:101620001B18002058605358002BFCDA30BDC04610
:101630004C05000804012640080126401E1F00003A
:10164000000026401C05000010B54378FF2B11D187
:1016500000F00AF90400032000F026F90121C36814
:101660005B681A680A431A601A680A42FCD12000B3
:1016700000F0E2F810BDF7B507000020019100F07E
:1016800013F93F4C050023681A005033BC3216682A
:101690001B788619002B5CD000F0EEF80090032830
:1016A00018D000F0E1F80400364A374BD158002931
:1016B000FCDAD358002B37DB344D009B032B05D1CC
:1016C0000121002000F0E8F80028F9D1200000F006
:1016D000B3F80AE0062000F0E7F82368BC331B6883
:1016E000C0180368002B02DA284D2800FEBD002038
:1016F00000F09AF8264B9842F6D00023254A1900AC
:101700000120126800F0A0F8041EEDD1002000F0C6
:101710008BF81F4A204B904203D09C42E4D0013406
:10172000F4E79C42BDD1DFE7012128001B4A00F00D
:1017300093F80028C0D10198FFF752FF002F06D080
:101740003368002BFCDB00F09FF80500B5E7144D73
:10175000B3E700F089F801210400104A280000F0E6
:101760007BF8002808D1002F08D03368002BFCDB61
:1017700000F08AF80500A9E7044DA7E7084DA5E7A2
:101780004C050008000026401C0500000500520022
:101790000101880060050008F049020050050008BA
:1017A00001005000184BF7B51B6818495A6804230C
:1017B0000C6923430B61012824D030BF1300FC3394
:1017C0001B69002B1DD1A324114B12481249E400C0
:1017D00007681E590D680195104D056006251D51BD
:1017E0003E240C600E4C3E351D511D59002DFCDA77
:1017F0000C4CFC321461A322D20007609E50019B66
:101800000B60F7BD20BFD9E74C05000800ED00E0F4
:101810000000264008012640040126401E1F00004B
:101820001C050000AAAAAAAA01B40248844601BC69
:10183000604700BF3908001001B40248844601BC6B
:10184000604700BF9303001001B40248844601BC06
:10185000604700BFD105001001B40248844601BCB6
:10186000604700BFBD04001001B40248844601BCBB
:10187000604700BF8B03001001B40248844601BCDE
:10188000604700BFE102001001B40248844601BC79
:10189000604700BF5904001001B40248844601BCEF
:1018A000604700BFB907001001B40248844601BC7C
:1018B000604700BFA503001000000000000000000A
:1018C0000000000000000000000000000000000018
:1020000000F80F08712300100D000000E5230010F8
:10201000E5230010E5230010E52300100000000078
:10202000000000000000000000000000E12300109C
:10203000E123001000000000E1230010E123001064
:10204000E1230010E1230010E1230010E123001040
:10205000E1230010E1230010E1230010E123001030
:10206000E1230010E1230010E1230010E123001020
:10207000E1230010E1230010E1230010E123001010
:1022E0000348044B834202D0034B03B118477047A5
:1022F0006829000868290008000000000548064B0E
:102300001B1AD90F01EBA301491002D0034B03B1F3
:102310001847704768290008682900080000000075
:1023200010B5064C237843B9FFF7DAFF044B13B11D
:102330000448AFF300800123237010BD602A000819
:1023400000000000A428061008B5054B1BB1054984
:102350000548AFF30080BDE80840FFF7CFBF00BFDE
:1023600000000000642A0008A42806107047704787
:10237000FFF7FCFF72B6144C144DAC4209DA216829
:102380006268A368043BA2BFC858D050FAE70C3477
:10239000F3E70F490F4A00209142BCBF41F8040BFC
:1023A000FAE70D480D490860BFF34F8F00F084F83D
:1023B00000F068F8FFF7DBFF46F090FF00F0B8FA96
:1023C00046F0B0FFFEE70000B0280610C82806104F
:1023D000602A000854F500080020000808ED00E01D
:1023E000FEE7FEE700B504207146084202D0EFF395
:1023F000098002E0EFF30880043008F01BFCFEE7E0
:1024000008B5012006F0ECFB08BD704710B50020B0
:1024100008F0FEFA00B910BD0446124B186007F030
:1024200067FC0130B4FBF0F00F4B186007F078FC4C
:102430000130B4FBF0F40D4B1C60013C0C4BA3FBD2
:1024400004239B0C01330B4A13700B4BA3FB043486
:10245000A4090134094B1C60002008F0D9FA084B8C
:102460001860D8E7EC220008F0220008E4220008F7
:1024700083DE1B43F8220008D34D6210F4220008CB
:10248000E822000808B5094805F0BAFCFFF7BDFFCF
:10249000FFF7BCFF00221146032006F0FDFB0448B5
:1024A00006F040FA034806F09FFA08BD4C150610E6
:1024B0007C2A0008E8AE0410EFF3108172B6074AD8
:1024C000D2F8883043F47003C2F88830BFF34F8FDE
:1024D000BFF36F8F81F31088704700BF00ED00E0FD
:1024E00008B500F05BF800F009F800F01FF808BD2F
:1024F00008B500F013F800F033F808BD08B507215F
:10250000002007F0FBFA00220721104607F068F9C7
:102510000721002007F0B0FA08BD000008B5024806
:1025200003F01CFB08BD00BF1CAF041010B5084C25
:10253000084A0421204606F017F8074A06212046DB
:1025400006F012F8054A0721204606F00DF810BDE6
:102550000003314090AF041058AF041020AF0410B6
:1025600008B5084803F0FAFA074803F0F7FA0748F5
:1025700003F0F4FA064803F0F1FA064803F0EEFA25
:1025800008BD00BFC8AF0410CCAF0410C4AF041026
:102590008CAF041054AF0410FEE7000030B583B0D8
:1025A00007220021322007F02BFAB421002008F086
:1025B00093FB08F023FBC0B9824BD3F8004F04F023
:1025C0003F0408F00BFB30B1012008F0FDFA7E4B10
:1025D0009B6C002B26DB7B4BC3F8004F07F086FC7F
:1025E00007F07AFC012007F095FC012008F084FE3A
:1025F00008F02AFE08F004FF08F0EEFE07F072FD76
:102600000021084607F010FC002007F07BFB0120AA
:1026100007F060FB002007F0EDFA6C4B1B6893F8A5
:10262000434006E00620FFF7B7FF204607F096FE7E
:10263000013C002CF9D10021012007F09FFC002073
:1026400007F0E0FB002800F0A1800021084607F019
:1026500095FC0021084607F0B5FB5D4D0024009471
:10266000234622462146284606F0B4F80094234625
:1026700022460121284606F0ADF8564807F00EFC28
:10268000002840F08F80012007F014FB002007F0A5
:1026900039FB002007F01EFB002007F0ABFA0021F9
:1026A000012007F06BFC0021084607F067FC0021C1
:1026B000022007F063FC0021032007F05FFC0021EB
:1026C000042007F05BFC0021052007F057FC42487E
:1026D00007F022FD002868D1404807F0CDFD002812
:1026E00066D10021084607F06DFB0021084607F07F
:1026F0009BFB3B49012007F057FE00285BD142F2CB
:102700001071012007F078FF002857D107F0C8FAB0
:10271000002007F099FA002007F0ACFA07F0B6FAAB
:102720000021084608F0CCFE012007F07DFA07F0F2
:10273000D3FB012007F0EEFB6421002008F0CCFA67
:10274000FFF764FE0021084608F0BAFE254803F0B2
:1027500005FA00B101BE244803F000FA00B101BE41
:10276000224803F0FBF900B101BE214803F0F6F95D
:1027700000B101BE1F4803F0F1F900B101BE1E48CF
:1027800003F0ECF900B101BE03B030BD07F024FC4A
:1027900040F2111398427FF458AF0121002007F056
:1027A00011FB52E70520FFF7F7FE0420FFF7F4FEC8
:1027B0000420FFF7F1FE0320FFF7EEFE0320FFF7F2
:1027C000EBFE00BF00F027400000274080DF00083C
:1027D0000000314040420F00D0AF0410400D030014
:1027E000FCAF0410E4AF0410E8AF0410ECAF041029
:1027F000F0AF0410F4AF0410F8AF041008B50448AB
:1028000008F0ECFB08B1002008BD0248FCE700BF5F
:10281000FC2200080000020610B503F09DF90446F2
:1028200038B154B1FFF75CFEFFF762FE5CB12046A1
:1028300010BD04F0EBFA0446F3E740F6E441002053
:1028400004F032FBEEE7FFF7D9FF0446EFE700B1F3
:10285000FEE77047014B024A1A6170470000A04032
:102860000107300000B583B0FFF7D6FFFFF7EFFF99
:1028700062B64FF4E1330093FF231A462821292042
:1028800008F064FFFFF7E3FF03B05DF804FB00000E
:1028900030B58BB00446224B03AD93E8070085E8C2
:1028A0000700204906A802F07FF8FFF7D0FF0022BA
:1028B0001D4906A802F0E3F8FFF7C9FF01221146FF
:1028C00006A802F0A8F8FFF7C2FF184908A802F00E
:1028D0006BF8FFF7BCFF06A908A802F0FEF8FFF7A7
:1028E000B6FF0122114608A802F095F8FFF7AFFFE6
:1028F000009508AB54225521204603F0CBFCFFF78E
:10290000A6FF204603F024FCFFF7A1FFFFF7A2FF7C
:10291000204603F0DDFBFFF79AFF0BB030BD00BF90
:10292000E0B004100C13061000007701DC12061052
:102930002DE9F0432DED028BADF2045D4FF4806282
:10294000002140A846F00CFC36AC834D0FCD0FC4DF
:102950002B68236000270397FFF784FF00F09AFBA2
:10296000FFF775FF04A8FFF793FF7C4846F088FA4D
:102970004FF0000840E040AB33F9163007EE903AD4
:10298000F8EEE77A9FED767A67EE877AB2EE047A10
:1029900067EE877ACDED037AB7EE007AF4EEC77A68
:1029A000F1EE10FA4DDD8DED037A03A800F032FB55
:1029B000FFF74DFFDDED037AF0EEE77AF4EEE78AFC
:1029C000F1EE10FA01D5F0EE678A07EE907AF4EE98
:1029D000E78AF1EE10FA01DD18EE907A3BA800F0DC
:1029E000FFF8044610F1020F00F0A78000284FD036
:1029F0000136359B9E42BED35A4846F041FA5A48AA
:102A000046F0A4FA4FF4007335934FF4806200212E
:102A100040A846F0A5FB35AA40A904A803F09AFDFA
:102A2000FFF715FF384644F06FFC47A3D3E90023B6
:102A300044F00AFB44F098FF07460026DFED4B8A7E
:102A4000D7E7BFEE007AF4EEC77AF1EE10FAACD514
:102A50008DED037AA9E70134042C1EDC3BAB03EBBC
:102A60008405286844F050FC02460B4636A951F80C
:102A700024103F4846F004FAD5ED007AF4EEC87A07
:102A8000F1EE10FAE7DD0FFA84F9B0EE678AE2E7BB
:102A90009FED388A4FF00009DEE7374846F056FAD6
:102AA000B8F1000F0BD03BAB03EB8803186844F080
:102AB0002BFC27A3D3E9002344F00EFF70BBB9F130
:102AC000000F06D0F6EE007AB4EEE78AF1EE10FAC7
:102AD0002BDA294846F03AFA18EE900A44F014FC32
:102AE00004460D46384644F00FFCCDE9000122466D
:102AF0002B46224846F0C4F9DDED357AF8EE677AC8
:102B00009FED1F7A67EE877A17EE900A44F0FCFB80
:102B100002460B461B4846F0B3F969E736AB53F85B
:102B20002810194846F0ACF9D3E736AB53F8291012
:102B3000154846F0A5F9C846CBE76FF00100FFF74E
:102B400086FE55E7AFF30080FCA9F1D24D62403F0D
:102B50009A9999999999A93FECB0041004B004107E
:102B60000000003814B0041018B004100000000079
:102B700040B0041000007AC45CB0041070B00410BF
:102B80000000003B8CB0041060B004102DE9F0414F
:102B900096B004460F4616461D46DDF870800F4B72
:102BA000186803909B88ADF810303A2200210DF18F
:102BB000120046F0D5FA13971496CDF8548001957B
:102BC000CDF80880224601A903A808F021FF10B91A
:102BD00016B0BDE8F0816FF00100F9E700B1041014
:102BE0002DE9F84F83460AE1344621E1BA4B1968D2
:102BF000BA48204446F00CFC002425E14FF0FF3495
:102C000022E1B54B0021D960196135E14FF0FF3465
:102C100035E16FF0010435E14FF0FF3432E16FF040
:102C200001042FE14FF0000850E0AD4B03EB8103AE
:102C3000AC4A02EB800212681A6001300131B1F532
:102C4000007FF2DB0023A84AA549A84801F0AEFBAB
:102C500005EB4403A64A02EB8301A3480068086021
:102C6000591C02EB8102002111600233022015E0A1
:102C70009F4A02EB830C9C4901EB800EDEF800E0DA
:102C8000CCF800E003F1010C02EB8C0200F1010C26
:102C900001EB8C010968116002330230B0F5007F4E
:102CA000E6DB934A02EB830002F5C0511431096858
:102CB0000160013302EB8302002313600134002C16
:102CC00002DC30190021BAE708F10108B8F1000F61
:102CD00006DC4FEA482608EB08256D000024EEE7E5
:102CE0007E4C40F20112214604F5805000F034FB86
:102CF0004FF0000904F2044301E009F10109B9F1C0
:102D0000000F1EDC09EB092800257A4E272DF4DC84
:102D1000794A32F91500A91C32F91140241AA4B2DB
:102D2000013424B2404403F1040A224631466B4F79
:102D300007EB800000F03EFA06EB840601355346AF
:102D4000E4E7664C28222146B7EE000A04F204406C
:102D500000F0AAFA04F1A00528222946204600F036
:102D600091FB28222946B7EE000A284600F0C8FA4F
:102D70002822F1EE000A9FED610A2146284600F064
:102D8000F3F9554BD3F81459D3F80449D3F808395B
:102D9000E31A9D4200F399804F4BD3F81039EA189B
:102DA000944280F28980E41A4B4ED6F80009DFF88D
:102DB0002C8122464146184446F02AFB2A1B08EB88
:102DC0000401D6F8000946F023FB434AD2F8103933
:102DD0002B44C2F81039D2F80429934203DB9B1A22
:102DE0003D4AC2F810393C4AD2F808392B44C2F89F
:102DF00008390024002C6BD1002CC0F2E780364A41
:102E0000536903EB83056D015E029268B2EB432FB9
:102E1000FFF602AF96423FF7F1AE2F4AD3685468EF
:102E2000A34200DB1B1BF2189442BFF6DDAEE41A8E
:102E3000294A116822461944284846F0E9FA321B0B
:102E4000002A3FF7D3AE0024002C7FF4E8AE224BDB
:102E50009A6895423FF7DAAE1946DB682B44CB609F
:102E600049688B4202DB5B1A1B49CB601A4BD9685D
:102E70001B6999423FF4C5AE551B174A9560002C5B
:102E80007FF4C7AEB4F1FF3F3CD0002CC0F29E806F
:102E90000024144DA5F50066002C3FF7C3AE4FF497
:102EA00000732A461649304600F0C4F906F500665C
:102EB00005F500650134EFE7074AD2F800092A4614
:102EC0000649184446F0A4FA7FE74FF0FF3491E733
:102ED0006FF0010490E700BF30640008102C000878
:102EE000184400081034000820540008006D000841
:102EF000103C0008FCEF0510A8EF051000000000D2
:102F0000A8E70510404BD3F81459C5EBC5084FEAA4
:102F10004808322202FB05F5D3F808399D423BDC14
:102F200062DC394AD2F80C39D2F80469B34200DBCA
:102F30009B1BEA1896424CDAF61A334AD2F800196B
:102F400032461944314846F063FAAA1B002A42DC93
:102F50000022002A54D12C4BD3F8081988451ADCDA
:102F60001846D3F80C394344C0F80C39D0F804099A
:102F7000834203DB1B1A2448C0F80C39224BD3F8D8
:102F80000C09D3F81039984230D0A1EB08031E4940
:102F9000C1F80839144684BB002C17DB1C4BD3F84E
:102FA00010491A49204608F095FC636D1A685C6860
:102FB0009868D968CBF80020CBF80440CBF808001B
:102FC000CBF80C101A69CBF8102000242046BDE87D
:102FD000F88F2E46B1E70C4BD3F800190B4830445C
:102FE00046F016FA0022B4E72246B2E7064B00206C
:102FF000C3F80C09C3F81009C7E76FF00104CBE769
:103000006FF00104C8E700BF30640008102C00080E
:1030100030840008F8B51E4B5C695D689B68EB1A4C
:103020009C422EDC06461A4B1B69E1188D4220DAC1
:10303000ED1A174F38682A463146184446F0E8F929
:10304000621B7119386846F0E3F9114A1369234489
:1030500013615268934202DB9B1A0D4A13610C4ABA
:10306000936823449360002070B9002800DB00209F
:10307000F8BD074A106822463146184446F0C8F9A0
:10308000E3E74FF0FF30EFE76FF00100EDE700BF3F
:103090003064000810B582B024480423436100F175
:1030A000180303604FF40063436000238360C36030
:1030B000036100F50D6001F093F920BB00200028AA
:1030C0001FDB1A4BA022C3F8142903F61812C3F809
:1030D00000294FF4FA52C3F804290022C3F8082942
:1030E000C3F80C29C3F810294FF4A0430093104BE8
:1030F000104A1149A3F10800FFF748FD002800DB42
:10310000002002B010BD0D4C2368DB682322012192
:103110000B4845F0A7FE2368DB680222012109481D
:1031200045F0A0FE6FF00100C9E700BF3064000861
:10313000488D00087836010030B1041030240008B2
:1031400008B104102CB104100230800803D0013003
:103150000238FCD100BF00BF7047EFF3108072B699
:10316000704780F3108870470023934221D200B546
:103170000AE0F4EEC07AF1EE10FA14D58C448CED2E
:10318000000A0133934212D24FEA830C00EB830E04
:10319000DEED007AF4EEE07AF1EE10FAE9DD8C442F
:1031A000CCED000AEDE78C44CCED007AE9E75DF860
:1031B00004FB704710B49408DFED1D7A22E090ED17
:1031C000007AD1ED006A27EE267A77EE877A90EDC5
:1031D000017AD1ED016A27EE267A77EE877A90EDB3
:1031E000027AD1ED026A27EE267A77EE877A90EDA1
:1031F000037AD1ED036A27EE267A77EE877A013CCF
:1032000010311030002CDAD102F0030208E0B0ECEB
:10321000017AF1EC016A27EE267A77EE877A013A95
:10322000002AF4D1C3ED007A5DF8044B704700BF6B
:103230000000000010B49C0823E0D0ED007A91ED6E
:10324000007A67EE877AC2ED007AD0ED017A91EDCF
:10325000017A67EE877AC2ED017AD0ED027A91EDBC
:10326000027A67EE877AC2ED027AD0ED037A91EDA9
:10327000037A67EE877AC2ED037A013C103210318F
:103280001030002CD9D103F0030308E0F0EC017AF0
:10329000B1EC017A67EE877AE2EC017A013B002B10
:1032A000F4D15DF8044B704793081AE0D0ED007A32
:1032B00077EE807AC1ED007AD0ED017A77EE807AF0
:1032C000C1ED017AD0ED027A77EE807AC1ED027A13
:1032D000D0ED037A77EE807AC1ED037A013B1031AD
:1032E0001030002BE2D102F0030206E0F0EC017A8C
:1032F00077EE807AE1EC017A013A002AF6D1704744
:1033000093081AE090ED006A26EE006AD0ED016A9B
:1033100066EE806A90ED027A27EE007AD0ED037AAD
:1033200067EE807A81ED006AC1ED016A81ED027A73
:10333000C1ED037A013B10311030002BE2D102F0D5
:10334000030206E0F0EC017A67EE807AE1EC017AA4
:10335000013A002AF6D1704700B5930815E04FF006
:10336000000CC1F800C027E04FF0000EC1F804E0E7
:1033700037E04FF0000CC1F808C047E04FF0000EF6
:10338000C1F80CE0013B01466046002B56D0D0ED61
:10339000007A90ED017A67EEA77A27EE077A77EE4A
:1033A000877A01F1040EF5EEC07AF1EE10FAD6DB61
:1033B000F1EEE77AC1ED007AD0ED027A90ED037A72
:1033C00067EEA77A27EE077A77EE877A01F1080C85
:1033D000F5EEC07AF1EE10FAC6DBF1EEE77ACEED4B
:1033E000007AD0ED047A90ED057A67EEA77A27EEA1
:1033F000077A77EE877A01F10C0EF5EEC07AF1EEDE
:1034000010FAB6DBF1EEE77ACCED007AD0ED067A71
:1034100000F1200C90ED077A67EEA77A27EE077A85
:1034200077EE877A01F11000F5EEC07AF1EE10FA2E
:10343000A4DBF1EEE77ACEED007AA3E702F0030217
:1034400006E04FF0000CC1F800C0013A01461846F2
:10345000B2B103460833D0ED007A90ED017A67EE01
:10346000A77A27EE077A77EE877A081DF5EEC07AFD
:10347000F1EE10FAE5DBF1EEE77AC1ED007AE4E770
:103480005DF804FB70B505460C46164606E0B5EC43
:10349000010A41F0DFFEA4EC010A013E002EF6D144
:1034A00070BD30B54FF0000E1DE032F81EC04FEA7F
:1034B0009C0C0EF1010332F813309B0850F82C409D
:1034C00050F8235040F82C5040F823400CF1010CE8
:1034D00050F82C40013350F8235040F82C5040F85D
:1034E00023400EF1020E7145DFD830BD2DE9F041C9
:1034F0002DED028B90B006460846358801EB850716
:1035000074684FEA550801EB880E07EB880CED084C
:103510003A460B46CFE093ED005A8DED0C5A93EDF1
:10352000016A8DED0D6A93ED023A8DED0E3A93ED41
:10353000037A8DED0F7A92ED000A8DED080AD2ED37
:10354000010ACDED090A92ED021A8DED0A1AD2EDAB
:10355000031ACDED0B1A9EED002A8DED042ADEED47
:10356000012ACDED052A9EED024A8DED064ADEEDDB
:10357000034ACDED074ADCED005ACDED005ADCEDF3
:10358000016ACDED016ADCED023ACDED023ADCEDE7
:10359000037ACDED037A35EE008A83ED008A36EEAC
:1035A000208A83ED018A33EE018A83ED028A37EEA9
:1035B000218A83ED038A35EE405A8DED085A36EEA6
:1035C000606A8DED096A33EE413A8DED0A3A37EEC5
:1035D000617A8DED0B7A72EE251ACEED001A72EE3D
:1035E000A61ACEED011A74EE231ACEED021A74EE6D
:1035F000A71ACEED031A75EEC25ACDED005A76EE3B
:10360000E26ACDED016A73EEC42ACDED022A77EEAF
:10361000E47ACDED037AD4ED004A94ED014A65EEEB
:10362000243A26EE042A26EE246A25EE045A73EE86
:10363000823AC2ED003A36EE456A82ED016A25EE25
:10364000846A26EEA45A66EE846A65EEA45A36EEC3
:10365000456A8CED006A76EEA56ACCED016A94EDC0
:10366000026AD4ED035A23EE065A67EE254A27EE86
:10367000067A63EE256A35EE245A82ED025A37EE59
:10368000667A82ED037A62EEA56A27EE865A67EEC5
:10369000A57A22EE867A76EEC56ACCED026A77EEDE
:1036A000877ACCED037A013D103410320CF1100C06
:1036B0000EF1100E1033002D7FF42DAF1FFA88F895
:1036C00002237268414600F0E5FA0223726841461F
:1036D000384600F0DFFA10B0BDEC028BBDE8F08197
:1036E0002DE9F04F2DED048B95B0054606900C4664
:1036F000079103885B0801EB8302039201EBC3018E
:103700000E46049101EB83000590171FA0F1040CF5
:103710000CEB83016D685B080293234694ED007AFD
:103720003446A6F10408D6ED007A37EE272A37EEA4
:10373000677AD3ED017AD6ED016A77EEA62A77EEA5
:10374000E67A92ED013A73EE073AD0ED016A73EE34
:10375000E63ACDED103AD2ED005A37EEE54A90ED5B
:10376000006A34EE064A8DED114A72EE654A74EE37
:10377000C64ACDED0C4A32EEC35A35EE665A8DED8F
:103780000D5A37EE437A76EE876ACDED086A75EE0C
:10379000A77A77EEC67ACDED097A75EE825A36EEC3
:1037A000256A9E461E46083683ED006A92ED017A30
:1037B00037EE227A034690ED016A37EE067A8EEDF7
:1037C000017A10460832C0ED003A80ED014A2046E9
:1037D0000830C4ED004A84ED015A1C460833C4ED9C
:1037E000006AC4ED017A05F1080A05F1100405F13B
:1037F000180E029D023D4FEA550B22E196ED007A2C
:10380000D0ED007A77EE273A37EE677AD6ED017A77
:10381000D0ED016A37EEA64A77EEE67AD2ED014A9C
:1038200034EE872A93ED013A32EE432A8DED102AC9
:1038300092ED006A77EEC65AD3ED006A75EEA65A8D
:10384000CDED115A73EEC62A72EEE62ACDED0C2AA2
:1038500034EE645A35EE435A8DED0D5A37EE647AE4
:1038600033EE073A8DED083A76EE277A77EEE67A70
:10387000CDED097A36EE236A76EE866A354608354E
:10388000C6ED006A019592ED017A37EE047AD3ED28
:10389000016A37EE267A86ED017A17ED010A1CEDF2
:1038A000017A70EE078A30EE470AD7ED000A9CEDE8
:1038B000007A30EE879A70EEC70A98ED001AD1EDC3
:1038C000001A71EE616A36EE804A8DED124A18EDEB
:1038D000018A70EEC83A11ED017A73EE873ACDEDA8
:1038E000133A78EEC84A74EEC74ACDED0E4A39EE67
:1038F000416A36EE616A8DED0F6A76EEC06ACDEDF3
:103900000A6A37EE487A37EE607A8DED0B7A31EE3F
:10391000091A71EE811AA7F10805C7ED001A58EDD2
:10392000011A71EEA81A11ED011A71EE811A47ED14
:10393000011A0AF10809DAED001A9AED011A62EE8D
:10394000210A25EE810A65EEA15A22EE012A70EEC7
:10395000800A02F1080AC2ED000A75EEC25AC2EDF1
:10396000015A63EE815A24EE212A24EE014A63EEC5
:10397000A13A75EEC25AA8F10806C8ED005A34EE15
:10398000234A08ED014A94ED004AD4ED015A10345F
:1039900062EE843A25EE252A25EE045A62EEA52A27
:1039A00073EE823A02460832C0ED003A35EE625AB2
:1039B00080ED015A26EE445A64EEA53A64EE844A3C
:1039C00026EE256A75EE635AACF10807CCED005A75
:1039D00036EE646A0CED016A9EED006ADEED015A76
:1039E0000EF1180E23EE065A67EEA54A67EE867AA8
:1039F00023EE253A35EE245A1846083083ED005A56
:103A000077EEC37AC3ED017A67EE257A26EE865A01
:103A100066EEA56A27EE067A77EEC57AA1F1080C64
:103A2000C1ED007A76EE876A41ED016A0BF1FF3B4A
:103A3000034610465246CA466146BC46B0462F462B
:103A4000019EBBF1000F7FF4D9AED6ED004AD0ED58
:103A5000007A34EEA72A74EEE74AD6ED017A90EDAB
:103A6000017A77EE872A77EEC77A92ED013A73EE04
:103A7000245A93ED015A75EEC55ACDED105AD2ED88
:103A8000003A77EEE36A93ED004A76EE846ACDED74
:103A9000116A32EE636A36EE446A8DED0C6A32EEDC
:103AA000C37A37EE457A8DED0D7A74EEC34A35EE62
:103AB000245A8DED085A73EEA77A77EEC47ACDEDCD
:103AC000097A73EE823A34EE234A86ED004AD2ED4B
:103AD000014A74EEA24A93ED014A74EE844AC6ED9F
:103AE000014ADAED003A9AED014A65EEA34A26EE64
:103AF000843A66EEA36A65EE845A74EE834AC2ED98
:103B0000004A76EEE56AC2ED016AD4ED004AD4EDD2
:103B1000015A66EE246A27EE254A27EE247A26EE1D
:103B2000256A76EE846AC0ED006A37EE467A80ED4B
:103B3000017A9EED006ADEED016A25EE067A67EEF7
:103B4000A65A67EE867A25EE265A37EE257A83ED59
:103B5000007A77EEC57AC3ED017ABDF808400423F8
:103B6000069D6A682146079800F094F804236A6865
:103B70002146039800F08EF804236A6821460498D1
:103B800000F088F804236A682146059800F082F85E
:103B900015B0BDEC048BBDE8F08F2DE9F041064671
:103BA0000C46174698460588012A0FD0B5F5807F48
:103BB00021D025D8402D2AD019D9802D34D0B8F164
:103BC000000F36D1012F3AD0BDE8F08101F1040C8D
:103BD000002109E0DCED007AF1EE677A63460CF132
:103BE000080CC3ED007A0131A942F3D3DEE7102DB2
:103BF0001AD0202DE3D121463046FFF771FDDEE7D4
:103C0000B5F5006FF7D009D9B5F5805FD7D101239D
:103C100072682946204600F03DF8D0E7B5F5007FF0
:103C2000F5D0B5F5806FCAD121463046FFF75EFC6E
:103C3000C5E7B268B1892046FFF733FCC2E707EE5B
:103C4000905AF8EE677AF7EE006A86EEA77A0023BC
:103C50000DE0D4ED007A67EE877AC4ED007AD4EDFA
:103C6000017A67EEC77AC4ED017A08340133AB42BA
:103C7000EFD3A9E703464FF480720280002058601A
:103C8000034A918999819168996052685A60704796
:103C9000840B06102DE9F04F2DED0E8B8DB0814673
:103CA000079108920B930691069B4FEAD30A4FF0B7
:103CB000000E0EEB0A010EEB4A030AEB030503EBC1
:103CC0004A020AEB020602EB4A070AEB070B4FEA2D
:103CD000CE0809EBCE0090ED007A4FEAC20C09EB5A
:103CE000C202D2ED007A77EE276A37EE677ACC000F
:103CF000019409EBC101029191ED006AF10009EB19
:103D0000C6060396D6ED007A76EE275A36EE676A37
:103D1000DE0009EBC303D3ED007AFC00049409EB49
:103D2000C70797ED005A77EE854A77EEC57AEC0023
:103D3000059409EBC5050995D5ED003A4FEACB048A
:103D40000A9409EBCB0B9BED004A33EE845A73EED9
:103D5000C43A76EEE40A76EEA46A35EEC51A75EE3C
:103D6000855A36EEA55A80ED005A76EEE56AC2ED28
:103D7000006A08F10408C84498ED005A0CF1040CDC
:103D8000CC44DCED006A75EE265A35EE665A019C8D
:103D900004344C44D4ED006A04314944D1ED004A66
:103DA00036EEA43A76EEE46A04364E44D6ED004A86
:103DB000049A151D4D4495ED004A34EE842A74EEA4
:103DC000C44A059A04324A4492ED004A0A980430E3
:103DD0004844D0ED002A74EE221A34EE624A75EEA1
:103DE000C22A75EE825A33EE612A33EE213A75EE1D
:103DF000831AC8ED001A75EEC35ACCED005A70EE66
:103E0000825AC3ED005A30EEC23A87ED003A72EEA4
:103E1000C15AC6ED005A71EE225AC5ED005A76EE2F
:103E2000635A9FEDF13A65EE835A36EE236A26EE29
:103E3000036A76EEC43A63EE833A76EE846A66EEFF
:103E4000836A37EE654A37EE257A77EEC65A77EE03
:103E5000867A35EE633A35EE236A34EEE65A74EE2E
:103E6000A66A77EE264A029BC3ED004A37EE667AD1
:103E70008BED007A34EE057A039E86ED007A34EEFF
:103E8000454A099D85ED004A36EE677A84ED007A51
:103E900077EE867AC0ED007A73EE657AC1ED007A2E
:103EA00075EE835AC2ED005A069B9E44079B7345EC
:103EB0003FF6FFAEBAF1070F40F2BA8101230A9331
:103EC00000230993D046099C0B9B1C4404EB44023D
:103ED00004EB8403E71803EB4406E500089800EBC5
:103EE000C401D1ED008A21462401099100EB0111A2
:103EF00091ED008A4FEAC20C00EBC20292ED000A7B
:103F000009984101089A02EB4012D2ED000ADA004A
:103F1000089800EBC30393ED001AFB0000EBC70702
:103F2000D7ED001AF70000EBC60696ED002A04351F
:103F300006460544D5ED002A0434044494ED003AC5
:103F40000CF104003044D0ED003A0431314491EDDD
:103F5000004A04323244D2ED004A0433334493ED34
:103F6000005A04373744D7ED005A0A9B9A460AEBA9
:103F700008000AEB480308EB030403EB480208EBD4
:103F8000020602EB480108EB010B4FEACA0E09EBEF
:103F9000CA0595ED007A4FEAC20C09EBC202D2EDD8
:103FA000007A77EE276A37EE67AAC700019709EB18
:103FB000C000029090ED006AF00009EBC60603967F
:103FC000D6ED007A36EE277A36EE676ADF0009EB27
:103FD000C303D3ED007ACE0009EBC101049191ED4A
:103FE000009A77EE899A77EEC97AE10009EBC4046A
:103FF000059494ED00CA4FEACB0409EBCB0BDBED43
:1040000000AA3CEE2A9A3CEE6ACA76EEE9CA76EE3F
:10401000A96A77EE49DA37EE097A36EE879A85EDA6
:10402000009A36EEC7EA0EF1040ECE449EED00BAB9
:104030000CF1040CCC44DCED006A3BEE267A3BEE3E
:1040400066BA019D04354D44D5ED006A04304844FC
:1040500090ED009A76EE899A76EEC96A04374F445D
:10406000D7ED00AA04364E4496ED009A7AEE89EA1E
:104070007AEEC9AA04314944D1ED00BA04344C4463
:1040800094ED009A3BEE89DA7BEEC9BA37EE6E9A70
:1040900037EE2E7A79EECDEA79EE8D9A3CEEAEDAF5
:1040A0007CEEEECA77EE29EACEED00EA37EE697AC9
:1040B00079EE6D9A3DEE899A60EE8EDA64EE07EA4B
:1040C00020EE877A24EE0EEA7DEEAEDAC2ED00DA5B
:1040D00037EE4E7A8CED007A28EE0D7A63EE29DA0F
:1040E00068EE299A23EE0DDA37EE2D7A83ED007A09
:1040F00079EECD9AC7ED009A21EEAC7A65EE099A79
:1041000021EE899A65EE2CCA37EE297A049A82ED5F
:10411000007A39EE6C9A86ED009A36EE4C9A9FED55
:10412000327A29EE079A36EE0C6A26EE076A36EEE8
:10413000EBCA2CEE07CA76EEAB6A66EE876A7AEEB9
:10414000499A3AEE097A37EEC69A77EE867A7BEE8E
:104150004CBA3BEE0C6A3AEEE6AA7AEEA66A37EE65
:1041600026BA37EE667A79EE8AAA79EECA9A76EEA0
:10417000676A77EE867A3BEEC9AA39EE2B9A28EE6B
:104180008B6A62EEA6BA68EEA66A22EE8BBA36EEAB
:104190002B6A029B83ED006A76EECB6AC5ED006A5E
:1041A00062EE076A25EEA7BA62EE277A25EE876AE5
:1041B00036EE8B7A8BED007A77EEC67AC4ED007A14
:1041C00061EE2A7A24EE8A6A21EE0A7A64EEAA6AFD
:1041D00077EE867A039EC6ED007A37EE667A80ED3A
:1041E000007A60EE296A01E0F304353F23EE896A24
:1041F00060EE097A23EEA97A76EE866A059CC4ED14
:10420000006A77EEC77AC1ED007A069B9A44079B55
:1042100053453FF6ACAE0A9B01330A9398453FF6EF
:1042200052AE0B9BDB009BB20B93CDF818803BE5A5
:104230000DB0BDEC0E8BBDE8F08F00BF00B543693B
:10424000B0F800C00CF1FF3CD1ED007A91ED017A9D
:1042500003F1080077EEA77A37EE077A77EE876AE0
:10426000B6EE006A66EE866A13460833C2ED006A4F
:1042700077EEC77A67EE867AC2ED017A01EBCC0E53
:1042800008319EED015A7246AEF1080E92ED007AA9
:10429000D1ED004AD1ED017AD0ED006AD0ED015A9E
:1042A000083037EE646A35EE274A66EE863A25EE28
:1042B000866A66EE846A65EE845A37EE247A37EEB3
:1042C000237A37EE257AF6EE005A27EE257A83ED2B
:1042D000007A77EEC57A77EE867A77EEE67A1A4636
:1042E000083367EEA57AC2ED017A08310CF1FF3C84
:1042F000BCF1000FC5DC5DF804FB10B54369008814
:104300000138D1ED007A91ED016A03F1080E37EE24
:10431000867AF6EE006A27EE267A02F1080C82ED24
:10432000007A77EEC67A67EEA67AC2ED017A01EBE3
:10433000C004083137E094ED015A2346083C93ED60
:10434000007AD1ED005AD1ED017A72460832DEEDE5
:10435000006A9EED016A35EEC74A75EE274A26EEE1
:10436000843A66EE243A26EE046A66EEA46A37EED4
:10437000257A37EE437A37EE637AF6EE005A27EE67
:10438000257A634608338CED007A77EEC57A77EEAE
:10439000867A77EEE67A67EEA57ACCED017A083177
:1043A000013896469C460028C5DC10BDF8B5044689
:1043B0000D4616461F4643B1FFF79FFF01233A46BD
:1043C00031462046FFF7E9FBF8BD01233A46FFF7E7
:1043D000E4FB324629462046FFF730FFF4E70000B1
:1043E00050B110B50446FFF745FC20B94FF40073F7
:1043F0002382034B636110BD4FF0FF30704700BF55
:104400008403061001BE0148704700BF0202020487
:1044100001BE0148704700BF0202020401BE01480C
:10442000704700BF0202020408781060002050604C
:104430004A781A608A78009B1A6070474078043086
:10444000034B03EB80030B600123136000207047D4
:104450005C230008024B0B600923136000207047A7
:104460005C23000808B5407806F0D2FA08BD0000C9
:1044700038B5054614468A4294BF0023012383427F
:1044800009D080F001038A422CBF002101218B4218
:1044900001D04DB138BD06F0D1FE054BA3FB043170
:1044A000890C06F019FCF4E7FDF7B0FFF2E700BF56
:1044B00083DE1B4308B54078013005F027FF08BDB7
:1044C0002DE9F0478CB005460F4644780134E4B23C
:1044D0000AA9204605F0D0FF064618B130460CB0B8
:1044E000BDE8F087204605F011FF804600284DD139
:1044F000002EF3D1204605F08DFD814600220023D9
:10450000CDE904230296039603AB009302AB04AA01
:104510000AA92846FFF788FF049BA3FB0931059AE7
:1045200009FB0211029A039800FB02F250081818C6
:10453000334641F1000143F0B7FA8146304605F0B9
:1045400093FC29FA00F927FA00FA304605F05AFCE4
:104550000546A0421FD0204605F05CFD0790089755
:1045600000238DF824308DF8253007A9204605F06A
:10457000A9FF0646B8F1000F13D1A542AED1CEB9BE
:10458000524649460020FFF773FFA7E7204605F093
:10459000E5FE0646ACE7524649460120FFF768FFB4
:1045A000D9E742F21071204606F026F8002EE4D139
:1045B0000646E2E74A4651460020FFF759FF8DE7DD
:1045C0002DE9F04F89B005460E46904644780134F7
:1045D00006A9204605F050FF074618B1384609B035
:1045E000BDE8F08F05F040FC8246204605F012FD44
:1045F000814600220023CDE904234FF0000BCDF8C3
:1046000008B0CDF80CB003AB009302AB04AA06A926
:104610002846FFF709FF0499A1FB0901059B09FB47
:104620000311029A039B03FB02F25308C0185B4676
:1046300041F1000143F038FAEEB120FA0AFB29FA01
:104640000AFA002005F0DEFB0546A04218D0EEB1C4
:10465000B8F1000F01D042F210773946204605F03C
:10466000CBFF0746A542B9D1AFB95A465146002003
:10467000FFF7FEFEB2E729FA0AFB20FA0AFAE0E7A2
:104680005A4651460120FFF7F3FEE0E7204605F0C9
:1046900065FE0746E6E7524659460020FFF7E8FE6A
:1046A0009CE708B54078013006F092F908BD00009B
:1046B0002DE9F04104460A78A2F10D03DBB2012B8B
:1046C00004D90F2A2FD14E78013600E04E78002011
:1046D00005F0CAFB0746002005F094FB06F078F9C8
:1046E00020FA07F8304606F073F920FA07F76378E6
:1046F0006BB1F1B2607805F065FB054663789BB954
:1047000058B93A4641460020FFF7B2FE0CE03A465F
:1047100041460120FFF7ACFEEBE742463946002058
:10472000FFF7A6FE00E0024D2846BDE8F08100BF7D
:1047300001020204F8B505460139072935D8DFE83A
:1047400001F00426340634343424002600E0022626
:10475000002005F089FB0746002005F053FB06F01A
:1047600037F920FA07F720FA06F46B788BB1314657
:10477000687805F059FB06466B78BBB978B92246D4
:1047800039460020FFF774FE10E00326E0E701261B
:10479000DEE7224639460120FFF76AFEE7E73A46A0
:1047A00021460020FFF764FE00E0014E3046F8BDD0
:1047B0000002020408B519B1407805F0BDFA08BD41
:1047C000407805F0E3FAFAE708B5407805F0CCFA4E
:1047D00008BD00002DE9F84304460E461546DDF8F5
:1047E0002080DDF8249001279F404FEA520C1CEBFB
:1047F00000004FF0000341F1000143F055F9C9F802
:104800000000B84201D9C9F80070B8F1000F1AD001
:1048100098F80070D9F8002000232046314643F074
:1048200043F902462946384603F024FA0028B8BF67
:104830004042B8F1000F08D0D8F80430834206D3C4
:104840000020BDE8F8830020F3E70020F9E70148E5
:10485000F7E700BF0002020408B590F800C01CF0A2
:10486000020F06D14A1E41780CF0030004F0B8FF95
:1048700008BD00234A1E41780CF0030005F014F82F
:10488000F6E770B584B004460D46164606F0D0F83B
:104890000146237813F0020F0ED013F0010F24D03D
:1048A0001D2303AA019200962A464801C90EFFF76C
:1048B00091FFE0B104B070BD13F0010F13D01023CD
:1048C00003AA019200962A4608460021FFF782FFBC
:1048D0000028EFD12078039A013A617800F00300B4
:1048E00004F07EFFE6E70823EAE71523D9E7039BF8
:1048F0005A09207803F01F03013A617800F00300A1
:1049000004F0D2FFD6E708B50378417803F003003E
:1049100006F0A7F808BD08B531B10378417803F077
:10492000030005F0A9F808BD0378417803F00300FF
:1049300005F0E4F8F7E708B50378417803F00300E1
:1049400005F00EF908BD000000487047341306104A
:104950002DE9F04182B007460D469046084603F027
:10496000B7F9C6B2002401E00134E4B2B44213D274
:1049700005238DF804308DF805508DF8064001A808
:1049800001F0ECF803460028EED13D707C70012266
:10499000BA70C7F8048000E0024B184602B0BDE8C8
:1049A000F08100BF020D020430B583B00C4605460D
:1049B00078B184B105238DF8043023788DF8053063
:1049C00063788DF8063001A801F0C8F828B103B06B
:1049D00030BD01BEEDE701BEECE7226863682A60E6
:1049E0006B600123AB70F2E708B5034648B11A7853
:1049F000122A08D0032A0AD95A6812681846904722
:104A000008BD01BEF3E71846FFF7DEFEF8E71846DB
:104A1000FFF791FFF4E710B5034648B11878122864
:104A200008D003280AD9586844681846A04710BD22
:104A300001BEF3E71846FFF7BDFEF8E71846FFF79B
:104A40006AFFF4E710B5044668B12046FFF7CCFFD3
:104A500098B12378122B08D0032B0AD963689B687E
:104A6000204698470AE001BEEFE72046FFF7FAFC30
:104A700004E02046FFF747FF00E0002010BD10B51E
:104A8000034648B11878122808D003280AD9586874
:104A9000C4681846A04710BD01BEF3E71846FFF7EB
:104AA000B1FCF8E71846FFF7ECFEF4E708B503465B
:104AB00048B11A78122A08D0032A0AD95A6812690A
:104AC0001846904708BD01BEF3E71846FFF732FECF
:104AD000F8E71846FFF7C0FEF4E708B5034600B153
:104AE00001B901BE1A78122A06D0032A08D95A68D9
:104AF00092691846904708BD1846FFF7D9FDFAE7B6
:104B00001846FFF78BFCF6E710B582B0044690B16B
:104B1000A37803B901BE05238DF8043023788DF8FE
:104B2000053063788DF8063001A801F05BF80023AA
:104B3000A37002B010BD01BEEAE708B5034648B154
:104B40001A78082A08D0092A00D001BE184600F0B9
:104B500023FE08BD01BEF3E7184600F031FAF8E77E
:104B600008B5034648B11A78082A08D0092A00D0A7
:104B700001BE184600F0B6FE08BD01BEF3E71846B8
:104B800000F0C4FAF8E708B5034648B11A78082AD5
:104B900008D0092A00D001BE184600F061FD08BD0A
:104BA00001BEF3E7184600F0A5F9F8E708B503469B
:104BB00048B11A78082A08D0092A00D001BE184640
:104BC00000F0A4FD08BD01BEF3E7184600F0BCF9F3
:104BD000F8E708B5844650B19CF80000082808D0D2
:104BE000092800D001BE604600F06CFD08BD01BE82
:104BF000F2E7604600F08EF9F8E708B5034648B1E1
:104C00001878082808D0092800D001BE184600F0FE
:104C1000D7FE08BD01BEF3E7184600F0E1FAF8E759
:104C200008B5034648B11A78082A08D0092A00D0E6
:104C300001BE184600F0E4FE08BD01BEF3E71846C9
:104C400000F0FEFAF8E710B50446B8B12046FFF7C9
:104C5000ADFF00B101BE02212046FFF7E1FF00B128
:104C600001BEB4F8781059B92378082B10D02378F6
:104C7000092B11D094F87A3093B110BD01BEE5E74D
:104C800002222046FFF7B9FF0028EDD001BEEBE776
:104C9000204600F0F1F8EAE7204600F093FCE9E74F
:104CA000204600F09FFFE8E70023032B06D8054AC3
:104CB00052F8232022B90133DBB2F6E70020704717
:104CC0000120704748DD000838B5EFF30583103B3D
:104CD000DBB2343BDBB2032B00D901BE032B1BD864
:104CE0000022032B00D901BE032B01D901BEFF23F3
:104CF0001C4603EB8202244951F82250032B00D9B1
:104D000001BE230203F1804303F5281341F28C0214
:104D100098580023194604E001BEFF22E1E7013361
:104D2000DBB250B1072B08D801229A401042F6D0CE
:104D3000164A32F813201143F1E711F0010F0FD09A
:104D4000B5F8643063B1013B9BB2A5F864303BB960
:104D500041F002016B7D012B13D00123A5F86430D3
:104D6000EB6E19402B6F1BB111B189B2686F984778
:104D7000032C00D901BE2402054BFF221A511B59F6
:104D800038BDAB8FEAE700BF48DD0008941306107A
:104D900080102A408000C0B20844C0B20230C0B2C5
:104DA0007047000070B5044600F11401443003F070
:104DB00089FA00284ED1221DA178294803F00EFA65
:104DC000002849D1A378032B00D901BE244A02EB65
:104DD000032341F28801FF205850136843F0004339
:104DE0001360A378032B00D901BE1B021D4AD358C0
:104DF00013F0180F19D160788000C0B2A37818445E
:104E0000C0B200F134063546E36ED3B90321164A29
:104E1000284601F063F808BB06F01F066D09012360
:104E2000B340124A42F8253015E0A378032B00D98D
:104E300001BE1A020B4B1344FF221A601B680C4878
:104E400009E006F1604303F5614393F80013490953
:104E5000C9B2DCE7074870BD0648FCE70548FAE739
:104E600000002A4080102A40C94C001000E100E0F8
:104E7000030602040106020410B50446443003F0A0
:104E8000A3F9A178164803F0DBF963789B00DBB245
:104E9000A2781344DBB203F134010B4601F01F0189
:104EA0005B0901228A4020330E4941F82320BFF3D9
:104EB0004F8FBFF36F8F62789200D2B2A378134402
:104EC000DBB2094A002142F82310FFF7EDFE00B1E2
:104ED00010BD064801F08EFF054B00221A70F7E75F
:104EE00000002A4000E100E048DD000880230008BF
:104EF00058DD00088378032B00D901BE0449103324
:104F00001B02CA5842F00042CA500020704700BF3E
:104F100000002A4093B1C36E0B43C36643789B00E5
:104F2000DBB281780B44DBB234335201D2B203F1ED
:104F3000604303F5614383F800237047C36E23EA9F
:104F40000103C366EAE70000054B9B68DBB281788A
:104F500001228A401A4214BF01200020704700BF7E
:104F600000002A4038B5022922D0082920D0012982
:104F700014D001BE19E000231D430134E4B2032C18
:104F80000FD875B90C4B53F824000028F3D0FFF765
:104F9000DBFF08B10123EFE70023EDE700242546FE
:104FA000EDE785F00105054B1D70044B187838BD01
:104FB000024B00221A70F8E748DD000858DD0008AF
:104FC00038B504460D46FFF7BFFF002840F08A8041
:104FD0006B69B3F5803F00F28780012B1AD923B1AA
:104FE0002A69B2EB034F00F281802B682362AB6821
:104FF0006362AB7B082B03D0102B01D0202B77D121
:105000002A69082B0CD0102B3ED0202B72D1022302
:10501000A37607E02A69B2F5803FE0D9374854E02B
:105020000023A3760023E3762377A36E022B2ED0F2
:10503000012B2FD004F1440323642B7E012B2BD9A9
:105040000123E375B5F90430A362B5F90C30E362CE
:105050006B6923B3B2FBF3F103FB1123002B4BD19C
:10506000022363776B692363B2FBF3F3E363B5F960
:1050700004306A6902FB03F36363B5F90C306A69B3
:1050800002FB03F3A3630DE00123A376CAE7012328
:10509000E376CFE72377CDE70023E375D2E701235B
:1050A000637722636B691BB12B7E7BB1022B0DD022
:1050B0000123A4F8643002236375B4F878300BB987
:1050C000022323762046FFF76DFE38BDE36BA4F87C
:1050D000643001236375B4F87830002BF2D10123DA
:1050E0002376EFE70648F0E70448EEE70348ECE7ED
:1050F0000448EAE70348E8E70348E6E7080603044C
:1051000005060204000602040406020410B5044663
:10511000FFF71AFF002851D12A4B1B78002B4FD1E3
:105120006278A3789200D2B21344DBB20233DBB2CE
:10513000254AD15CD256002A32DB244AD25C42EAAC
:10514000012242F08042224B1968B1F87230B1F866
:105150007610890801390B4343F0804332EA030398
:1051600000D001BE1A4B19688C68B1F87000235842
:10517000002B1FDBB1F8723043F0804343F0FF0394
:10518000134091F833201F2A0FD843F0004343F413
:105190000033235000220F4B9A420DD0002010BD47
:1051A00002F06F0242F01001C7E743F020432350A2
:1051B0000022F0E7074AEEE70748F0E70648EEE787
:1051C0000648ECE758DD0008CC0C06104412061027
:1051D00080DF00080200CE0006060104031A020464
:1051E000022A27D810B50C468378032B00D901BEBC
:1051F000114910331B02CA5822F00042CA50436CB6
:1052000023F0C003436443F0800343648378032B9B
:1052100000D901BE084910331B02CA5842F00042AF
:10522000CA5081784078FFF7B5FD0146204600F06E
:1052300007FE10BD0148704700002A400106020425
:1052400002291ED88378032B00D901BE0E491033E2
:105250001B02CA5822F00042CA50436C23F03003AC
:10526000436443F0300343648378032B00D901BEC9
:10527000054910331B02CA5842F00042CA500020B0
:1052800070470248704700BF00002A400106020430
:105290000023392B06D8054A52F8232022B90133BE
:1052A000DBB2F6E700207047012070475CDD0008A4
:1052B000C0EBC00300EB830051FA80F0C0B20630AF
:1052C000C0B2704738B5EFF305839BB2A3F110026B
:1052D00092B2A3F1480189B21C2907D9A3F1650054
:1052E00080B21C280CD901BEFF2000E000201C2940
:1052F00008D9653B9BB21C2B6FD901BEFF2303E08D
:105300000120F4E7383AD3B2C0EBC00200EB8202CE
:105310001D4613443E4A52F82320002860D13D4CDC
:105320003C4B9C425ED03C4B1B6893F83A309D420C
:1053300034BF0023012303B101BE374B1968B1F814
:1053400062302344B1F8641001FB05335B6803F05D
:105350000F03082B00D901BE082B4CD82F4931F878
:10536000131011F0010F0FD0B2F8643063B1013B9C
:105370009BB2A2F864303BB941F00201537D012B8E
:105380003BD00123A2F86430D36E1940136F1BB1D8
:1053900011B189B2506F98471E4B9C422FD01E4BC3
:1053A0001B6893F83A309D4234BF0023012303B1B8
:1053B00001BE194B1A68B2F862302344B2F8641087
:1053C00001FB053301211961B2F862301C44B2F8C7
:1053D000643003FB0544236938BD553AD3B293E7E3
:1053E0000F4C9DE70C4B1B6893F839309D4234BF3E
:1053F000002301239FE70021B3E7938FC2E7064B09
:105400001B6893F839309D4234BF00230123CEE757
:105410005CDD00080000284080DF0008A4130610AF
:105420000000294038B5044600F11401443002F070
:10543000EDFC002840F0B1806378002B5DD15A4D1F
:10544000221DA178284602F0EFFD002840F0A78039
:10545000A278554B9D4252D0544B1B6893F83A307A
:105460009A4234BF0023012303B101BE4F4B196898
:10547000B1F862302B44B1F8641001FB0233012211
:105480009A612B6843F000432B60A278464B9D4203
:105490003ED0464B1B6893F83A309A4234BF002303
:1054A000012303B101BE414B1968B1F862302B44AE
:1054B000B1F8641001FB02331B69043B012B30D9A6
:1054C000637813B9A5781C2D57D9012B57D001BE8D
:1054D00040F2FF35E36E002B56D10321344A2846B3
:1054E00000F0FCFC00285CD105F01F026D090123CF
:1054F0009340304A42F8253052E02F4DA0E72B4B25
:105500001B6893F839309A4234BF00230123ABE77C
:10551000264B1B6893F839309A4234BF002301238D
:10552000BFE7A178204B9D421ED0204B1B6893F80B
:105530003A30994234BF0023012303B101BE1B4B13
:105540001A68B2F862302B44B2F8640000FB0133F1
:1055500001201861B2F862301D44B2F8643003FBD8
:1055600001552B6915481BE0104B1B6893F8393027
:10557000994234BF00230123DFE73835AAE7A57835
:105580001C2DA4D85535A5E705F1604303F561430B
:1055900093F800134909C9B2A0E7094800E0084898
:1055A00038BD0748FCE700BF0000284080DF000846
:1055B000C552001000E100E000002940030602048B
:1055C0000106020410B50446443002F021FD637860
:1055D0004BBB1D48A17802F0B5FD627812B9A378E3
:1055E0001C2B22D9012A22D001BE40F2FF3303F046
:1055F0001F015B0901228A402033144941F823200E
:10560000BFF34F8FBFF36F8F6378C3EBC30203EB1E
:105610008203A27813440E4A002142F82310FFF7B8
:1056200037FE48B110BD0B48D4E73833DFE7A37825
:105630001C2BD9D85533DAE7074801F0DBFB074BC1
:1056400000221A70EEE700BF0000284000E100E0F1
:105650005CDD0008000029409023000844DE0008BB
:105660004378EBB9144A837813498A421AD0134914
:10567000096891F83A108B4234BF0021012101B131
:1056800001BE0E490968B1F86200B1F86410024425
:1056900001FB03F3D15841F00041D1500020704785
:1056A000074AE0E70549096891F839108B4234BF91
:1056B00000210121E3E700BF0000284080DF00084F
:1056C00000002940ABB1C36E0B43C366417811B9EA
:1056D00083781C2B12D9012912D001BE40F2FF336E
:1056E0005201D2B203F1604303F5614383F8002312
:1056F0007047C36E23EA0103C366E7E73833EFE779
:1057000083781C2BE9D85533EAE7000043786BB95E
:10571000074B084A1268B2F862100B448178B2F85D
:10572000642002FB01335868C00F7047024BF0E75A
:105730000000284080DF00080000294038B5022919
:1057400022D0082920D0012914D001BE19E000235D
:105750001D430134E4B2392C0FD875B90C4B53F802
:1057600024000028F3D0FFF7D1FF08B10123EFE7B1
:105770000023EDE700242546EDE785F00105054B04
:105780001D70044B187838BD024B00221A70F8E7E0
:105790005CDD000844DE000838B504460D46FFF71E
:1057A000B5FF002840F08C806B69B3F5807F00F274
:1057B0008980012B1BD923B12A69B2EB032F00F298
:1057C00083802B682362AB68636204F14403236423
:1057D0002B7E012B11D90123E375AB7B082B0FD056
:1057E000102B50D0202B71D1022363760AE02A6956
:1057F000B2F5807FDFD9374844E00023E375ECE75A
:10580000002363760023E376A376A36E022B3DD0BC
:10581000012B3ED06B6933B12A69B2FBF3F103FB74
:105820001122002A54D1B5F90430A362B5F90C3025
:10583000E3626B697BB3022323776A6922632B6976
:10584000B3FBF2F3E363B5F904306A6902FB03F3D7
:105850006363B5F90C306A6902FB03F3A3636B69F8
:105860001BB12B7E03B3022B1ED00123A4F864309E
:1058700002236375B4F878300BB9022323762046EF
:10588000FFF7D0FD38BD01236376BBE70123A37684
:10589000C0E7E376BEE7012323772A692263E36347
:1058A00000236363A363DAE7E36BA4F864300123A6
:1058B0006375B4F87830002BE1D101232376DEE75D
:1058C0000548DFE70348DDE70248DBE70348D9E79F
:1058D0000348D7E70806030405060204000602048D
:1058E0000406020410B50446FFF710FF002854D147
:1058F0002C4B1B78002B52D16378A278C3EBC301E9
:1059000003EB810352FA83F3DBB20633DBB2264AA0
:10591000D15CD256002A32DB244AD25C42EA012210
:1059200042F08042224B1968B1F87230B1F876101B
:10593000890801390B4343F0804332EA030300D066
:1059400001BE1B4B19688C68B1F870002358002BFE
:105950001FDBB1F8723043F0804343F0FF03134084
:1059600091F833201F2A0FD843F0004343F400334B
:10597000235000220F4B9A420DD0002010BD02F0A0
:105980006F0242F01001C7E743F02043235000228A
:10599000F0E7084AEEE70848F0E70748EEE707486F
:1059A000ECE700BF44DE0008CC0C061044120610E1
:1059B00080DF00080200CE0006060104031A02047C
:1059C000022A19D838B504460D46B0F8783003B924
:1059D00001BE636C23F0C003636443F0800363641F
:1059E000A1786078FFF764FC0146284600F028FAA9
:1059F00008B9A4F8780038BD0048704701060204D1
:105A0000022908D8436C23F03003436443F0300389
:105A10004364002070470148704700BF010602043C
:105A200070B5042829D08E4611461D2878D8024624
:105A30003D4C34F81050441C1D2C22D8E4B23A4E90
:105A400036F814404FF0010C0CFA02FC374A0CEA0D
:105A50000202002A5DD0C21E182A39D8DFE802F0FF
:105A600014383A3838162C38303838383838323814
:105A700034383838383838362E004FF00D0E0520BF
:105A8000D3E740F23114DDE7294A00E0294A1C80BF
:105A9000002A40D00338182837D8DFE800F01D3638
:105AA0003836361D30363236363636361D361D36E9
:105AB0003636363636341D001F4AE8E71F4AE6E719
:105AC0001F4AE4E71F4AE2E71F4AE0E71F4ADEE712
:105AD0000022DCE71E4ADAE70126B6451BD232F87F
:105AE0001E00284411FA80F119800EF10101B14223
:105AF00011DA8E4632F811402C44A4B20BE0022693
:105B0000EBE71026E9E70226E7E70026E5E71A2695
:105B1000E3E775441D801B88A34203D2002070BDBB
:105B20000C48FCE70B48FAE728140610280B0A0C6F
:105B3000B8130610F0130610F41306102414061000
:105B4000F8130610181406101C1406102014061062
:105B5000BC130610000D020400207047F0B583B09E
:105B600004460027FDF7F9FA06460DF10603A27870
:105B700061782078FFF754FF054668B9BDF8063014
:105B8000C3F3C70203F007031449895C012202FA38
:105B900003F3194218BF174605B9EFB92DB13046C6
:105BA000FDF7DFFA284603B0F0BD0DF10603A27839
:105BB00061782078FFF734FF05460028EFD1BDF863
:105BC0000630C3F3C70103F00703044801229A40DB
:105BD000435C13434354E2E7014DE0E748DE00082D
:105BE000010D020430B583B00446FDF7B6FA054650
:105BF0000DF10603A27861782078FFF711FF0146C6
:105C000068B9BDF80630C3F3C70003F00702074CBC
:105C100001239340DB435BB2225C1340235401B168
:105C200001BE2846FDF79DFA03B030BD48DE0008EE
:105C300002460023184603B1704702B118460133EB
:105C4000DBB2F8E710B50446FFF7F2FF204610BDBF
:105C5000002001E00130C0B2102805D8044B1B5CC5
:105C6000002BF7D040B270474FF0FF30704700BFB5
:105C7000380D061038B504460D46FFF7E9FF114B05
:105C80001B5D83B1104B1A689368B2F874100B4413
:105C9000201A1030B2F8762002FB00F000EB8501EC
:105CA000C858C0B238BD084B1A689368B2F874106F
:105CB0000B44B2F8762002FB04F404EB8501C858CB
:105CC000EFE700BF380D061080DF00082DE9F8432C
:105CD00004461E469DF820809DF82470224B1B5CD4
:105CE000C3B1411ACCB22046FFF7ACFF46EA00260A
:105CF0002046FFF79DFF46EA004040F0804040F418
:105D0000805027B14246002105F05AFC23E005F0FF
:105D1000A5FC20E01546FFF795FF4FEA002945EA6C
:105D200000252046FFF784FF45EA004549EA0609B9
:105D300049EA004949F080417FB90C4B19688B68EA
:105D4000B1F874201A44B1F8763003FB04F404EB84
:105D5000860300209850BDE8F88343460022284679
:105D600005F0D2FBF7E700BF380D061080DF000812
:105D70002DE9F04782B00C469046C0F3470600F08C
:105D80000107FFF765FF8146264B1D5D1B57002B62
:105D900014DB102D3FD8244B13F804A000242A460E
:105DA000224B33F81530A34231D9214B53F825301B
:105DB0001B5DB34208D00134A4B2F0E705F07F05C3
:105DC00055FA80F5EDB2E4E71A4B9B5C1BB11FFA64
:105DD0008AF3A34221D1B8F1020F04D051462846DC
:105DE000FFF748FFD8B9B8F1000F01D100200FE04C
:105DF000B8F1010F14BF002301230193009753460C
:105E0000E2B25FFA89F12846FFF760FF00E00A4836
:105E100002B0BDE8F0870848FAE70748F8E7074806
:105E2000F6E700BFCC0C061044120610B0120610A4
:105E300018230008380D0610010C0204000C02049F
:105E400008B50222FFF794FF08BD000070B582B0CC
:105E50000D468378772B16D8DA08114909688E69C0
:105E600006EBC216C27803F00704009201232A460B
:105E70002146304602F0AEFC0A2D08D00B2D0AD088
:105E8000002002B070BD064A12689669EAE7012355
:105E9000A340B360F4E70123A3407360F0E700BFC1
:105EA00080DF000810B582B00146772810D8C308FB
:105EB000094A1268906900EBC31000240094012382
:105EC000082201F0070102F085FC204602B010BD57
:105ED000014B1B689869F0E780DF000800B583B0CC
:105EE000ADF8000001911146684604F01DFE03B0B4
:105EF0005DF804FB9D2804D001BE002313700B70D5
:105F00007047002313700B70704700000146002398
:105F1000184605E0044A52F8212052F823000133C4
:105F200008B9002BF6D0704764140610074B1B7895
:105F30005BB905E0064A002142F823100133DBB2C9
:105F4000002BF7D0014B01221A7070476FDE00085A
:105F5000B829000838B504460B46E2B19446117ED4
:105F6000B3FA83F25209914201D0194838BD00F1C9
:105F700010020CF1100103C982E803009CF81820FC
:105F8000227612BB1A88BCF810309A4201D0104811
:105F9000ECE70020EAE731B11034D1E9000184E8F0
:105FA00003000020E2E700F1100501231A4600F18A
:105FB0000801284601F0AAFE0028D7D10121217648
:105FC0000A462846FEF727FDD0E70020CEE700BFAF
:105FD0000112020438B5054648B1394B1B7803B9A4
:105FE00001BE2B7A1E2B4BD00023012407E001BEFB
:105FF000F3E7012200E00122144001339BB264B1B7
:106000006A7A53B92F4951F8222052F82320002AE6
:10601000F1D09542EDD00022EEE705F1AC0000F0A2
:10602000E9FE686898B164BBAA7A274B33F912304D
:10603000002B0CDB03F01F015B0901228A40203397
:10604000224941F82320BFF34F8FBFF36F8F6A7A45
:106050001C4B53F82230AA7A53F82210A94213D0CD
:106060000CB12B78A3B100236B601E232B722B780D
:106070009BB10CB12B7ECBB995F82C301E2B1AD1CD
:1060800038BD02F057FFCFE7002143F82210E7E7C1
:1060900005F10800FFF7A6FDE5E705F10B0001F0AB
:1060A0006AFD05F10C0001F066FDE2E705F1100064
:1060B000FEF72AFDE0E705F12C00FEF7C4FDDFE75F
:1060C0006FDE000864140610A023000800E100E061
:1060D000034668B393F8A92062BB83F8A8205A68E6
:1060E000D2F8001341F48031C2F80013D2F8001343
:1060F00021F48031C2F8001359680A6A42F00102A3
:106100000A625A682D21C2F800135A684FF4803190
:10611000C2F8001FD2F8002F5B68D3F8082F114394
:1061200032F4CA0200D001BEC3F8081F0020704735
:1061300001BECFE700487047031A0204034628B1A6
:106140005B68186A003818BF0120704701BEF7E786
:106150000146A8B14B68D3F8002342F48032C3F85B
:106160000023D3F8002322F48032C3F800234B68C5
:106170004FF4C202C3F8002FD3F8003F002070474D
:1061800001BEE7E770B504461D463C4B436072B163
:106190000026627A3A4B53F82230A27A43F8224022
:1061A0006B7C032B5BD8DFE803F00A5D5658294669
:1061B000184602F003FE064600284AD1E9E71023FC
:1061C000082B51D8012384F828300023236263620E
:1061D000AA6912F4803F00D0012312F4802F01D06D
:1061E00043F0020312F4001F01D043F0040312F441
:1061F000800F01D043F00803E361002384F8A83046
:1062000084F8A9301F4AC4F8AC200E2284F8B020CC
:10621000C4F8B830C4F8B440142384F8B13004F1A1
:10622000AC0000F0DBFDA27A174B33F91250174A8D
:1062300003212846FFF752FE002D07DB05F01F0261
:106240006D0901239340124A42F825302046FFF79A
:106250007FFF304670BD1423B2E71823B0E701BEBC
:106260001823ADE71223ABE7102B03D8022384F8E1
:106270002830AAE7042384F82830A6E70000A040CD
:106280006414061041680010A0230008F565001092
:1062900000E100E02DE9F04F8BB08A4691469B4625
:1062A000054600283BD0C4220021284642F058FF72
:1062B000FFF73CFE1E232B72FF22EA722A7385F839
:1062C0002C3080236B7600240094234602229849C8
:1062D000504601F023FC06460094234602229549CD
:1062E000484601F01BFC80467EB300283AD0337844
:1062F00002789A4215D00023002B36D014232B723B
:10630000307868727378AB728B4A6A608B4A52F845
:10631000202052F8233063B10027894C18E001BED9
:10632000C1E7727843789A4201D02346E4E701231B
:10633000E2E7FFF7EBFD074608B1002407E005F1AF
:106340000800FFF70BFC044601E037467D4C7CB1AA
:10635000C4B10CB33CB3002C40F0E68020460BB037
:10636000BDE8F08F0746774CF1E70027754CEEE764
:106370000821304601F00AFC04460028E8D185F8DF
:106380000BA0E5E70621404601F000FC044600288A
:10639000DFD185F80C90DCE73A4659462846FFF7EE
:1063A000D9FD0446D6E703AEDFF8A4C1BCE80F0070
:1063B0000FC69CE8070086E80700149B1E684BF692
:1063C00080339E4200F2A880149B9B8803FB06F654
:1063D00005F11000FEF736FB01464FF001084FF0C3
:1063E000FF3C4FF00209C246C34621E0521A9445D1
:1063F00003D994469946C246F3460133DBB2102BCB
:1064000005D803FB00F29142F0D98A1AEFE70EF1AA
:10641000010E5FFA8EFEBEF1040F05D808FB0EF0E8
:1064200006FB00F00223EAE708F101085FFA88F8AA
:10643000B8F1040F01D8C646EDE70BF1FF3B8DF82C
:106440000CB00AF1FF3A8DF80DA009F1FF398DF873
:106450000E90149B9B88C3F347038DF81030149B58
:106460009B79012B1ED0022B20D063B1364C002C1F
